:04000000A1EF01F07B
:100008005382D9CF13F0DACF14F0F3CF15F0F4CF31
:1000180016F0F6CF17F0F7CF18F0F8CF19F0F5CFA4
:100028001AF09EAA30D19E9A22D19D9A0001CF6BD8
:10003800D06BD0BF05D0D0511AE1050ECF5D17E2C5
:10004800CF51020DF350A90FD96EDA6ADF5074EC64
:1000580018F00001CF51020DF350AA0FD96EDA6AD9
:10006800DF5074EC18F00001CF4BD02BE2D7C95108
:1000780074EC18F0000E74EC18F09D8A04D19D9A67
:100088000001CF6BD06BD0BF05D0D0511AE1050E5F
:10009800CF5D17E2CF51020DF350A90FD96EDA6A7E
:1000A800DF5074EC18F00001CF51020DF350AA0F85
:1000B800D96EDA6ADF5074EC18F00001CF4BD02B00
:1000C800E2D7C95174EC18F0000E74EC18F0000E69
:1000D80074EC18F0000E74EC18F0000E74EC18F0C4
:1000E800000E74EC18F01C6A1D6A1DBE05D01D5068
:1000F800C4E1FE0E1C5CC1E2AB9E9D9AAB9889ECF4
:1001080018F01CC010F01DC011F0D8901036113630
:10011800D89010361136D89010361136100E10249B
:100128000001CF6F000E1120D06F25D01E0E1C18B5
:100138001D1010E11C50F80DF350510FCF25D96E4A
:10014800DA6A000ECF25026E070ED021036E25EC69
:1001580017F00DD01C50F80DF350510FCF25D96E64
:10016800DA6ACFC002F0D0C003F025EC17F0DF6EDA
:100178000001CF4BD02B1CC010F01DC011F0D8903F
:1001880010361136D89010361136D89010361136F0
:10019800180E1026000E11221050CF5DD051800A83
:1001A800126E1150800A1258C1E3C69A9D8AEAEC71
:1001B80017F09D8A1CC010F01DC011F0D8901036A1
:1001C8001136D89010361136D89010361136100ED8
:1001D80010240001CF6F000E1120D06F0DD01C50DD
:1001E800F80DF350510FCF25D96EDA6ADF5074EC51
:1001F80018F00001CF4BD02B1CC010F01DC011F01F
:10020800D89010361136D89010361136D89010364E
:100218001136180E1026000E11221050CF5DD05145
:10022800800A126E1150800A1258D9E31C4A1D2AFE
:100238005CD7AB9E9D9AAB9889EC18F07DEC11F0D9
:10024800C69A9D8AEAEC17F018D7AB9E9D9AAB9890
:1002580089EC18F0096A100E086E080E0B6E100E65
:100268000A6E7FEC16F0ECD7EEEC14F00CD0AE5022
:10027800460AEBE0090A01E102D71D0A01E1D5D6D9
:10028800010AD7E0F1D78040E8423F0B070B1B6E0D
:10029800A4A217D0A492020E0001DE1912E152B0F6
:1002A80052B40FD052B203D01B50D10F02D01B5002
:1002B800D70FD96EDA6ADF506B6E68CFD1F069CF8D
:1002C800CBF0A4A413D0A494020E0001DE190EE111
:1002D80052B052B40BD052B203D01B50D10F02D03F
:1002E8001B50D70FD96EDA6ADF506B6EA4A611D0F7
:1002F800A49652B052B40DD052A00BD052B203D033
:100308001B50D10F02D01B50D70FD96EDA6ADF50BD
:100318006B6EA4B0A4901AC0F5FF19C0F8FF18C0FE
:10032800F7FF17C0F6FF16C0F4FF15C0F3FF14C09F
:10033800DAFF13C0D9FF53921100D7EF13F0030E61
:10034800B86EB96AF28EF28C0001A66B86EC18F0D2
:10035800CF6BD06BD0BF05D0D0512BE1050ECF5D50
:1003680028E2CF51020DF350A90FD96EDA6AD8905E
:10037800CF351F6ED035206EE3EC16F0DF6E00012E
:10038800CF51020DF350AA0FD96EDA6ACFC09BF095
:10039800D0C09CF0D8909B379C379B291F6E000ECD
:1003A8009C21206EE3EC16F0DF6E0001CF4BD02BC2
:1003B800D1D7206A0B0E1F6EE3EC16F00001A96F6F
:1003C800206A0A0E1F6EE3EC16F00001C96FC9C05F
:1003D800CAF0969284829FEC17F097EC0FF021EC0C
:1003E80012F0DDEC17F050EC17F0F7EC17F00C0EEC
:1003F80023EC18F0CBEC16F052905292A9C0B3F04F
:10040800AAC0B4F0ABC0B5F0ACC0B6F0ADC0B7F0A0
:10041800AEC0B8F0AFC0B9F0B0C0BAF0B1C0BBF070
:10042800B2C0BCF0010E0001A76F94865FEC18F013
:10043800A3EC0DF00001A86FDE0541E152909EEC9F
:1004480013F05EEC08F00001A80507E1A86B4A2A42
:100458000A0E4A6402D0010E4A6E020EA81905E17E
:10046800A86B4A2E02D00A0E4A6E030EA81927E17D
:10047800A86BCAC0C9F0FD0EC96507D0226A0A0E6A
:10048800216E000E66EC15F007D0C92B226A0A0E01
:10049800216EC95166EC15F01E0E0001C91904E061
:1004A800C9C09DF09E6B03D09E6BFE0E9D6F9D5143
:1004B800FFEC0FF0CBEC16F0020E0001DE6F020E1F
:1004C800DE1901E0C3D0A751020DF350B10FD96E68
:1004D800DA6ADECF8DF0DDCF8EF0A7C08FF0906B9B
:1004E80057EC05F00001A751020DF350B10FD96E7A
:1004F800DA6ADF50ECEC12F02D6A800E2E6E430E95
:100508002F6ECB518DEC17F026C02AF027C02BF0A8
:1005180028C02CF02CEC0FF02AC03BF02BC03CF08C
:100528002CC03DF00001D1518DEC17F026C038F0F9
:1005380027C039F028C03AF04AEC0CF038C066F011
:1005480039C067F03AC068F0970E0001636F180E63
:10055800646F490E656F65EC10F063C072F064C09B
:1005680073F065C074F0C3EC10F072C0C5F073C0CE
:10057800C6F0F9EC0CF00001C351C55D9B6FC45186
:10058800C6599C6F9CAF0BD0D50E9B5DFE0E9C5937
:1005980006E2CE2B630ECE6502D0640ECE6FC5C0C8
:1005A800C3F0C6C0C4F0A80507E1A86BA72B050EC9
:1005B800A76501D0A76FCE6B020EA81906E1A86B3C
:1005C800A72F02D0010EA76FCE6B030EA81929E141
:1005D800A86B492A1E0EC91907E0FF0EC9259F6F8F
:1005E800A06BFF0EA02303D0A06BFE0E9F6F9FC0D1
:1005F8009BF0A0C09CF0D8909B379C37D8909B3735
:100608009C37D8909B379C37170E9B25216E000E80
:100618009C21226E495066EC15F00001C56BC66B33
:100628005280040EA81904E1A86BC56BC66B5290E2
:1006380052B004D082A4529282A25282070EA81904
:1006480005E1A86B030EDE6FCBEC16F0030E00017C
:10065800DE1901E012D1CE6B5290A751020DF35072
:10066800B10FD96EDA6ADECF8DF0DDCF8EF0A7C07C
:100678008FF0906BA6C091F00DEC07F0030E00010F
:10068800A81909E1A86B030E1E6EA62BA6517AECD9
:1006980017F00001A66FA65114E1A80507E1A86BA1
:1006A800A72B050EA76502D0010EA76F020EA81989
:1006B80008E1A86BA707A75102E0A72902E1050EE8
:1006C800A76FA60537E1A80512E1A86BA751020D8F
:1006D800F350B10FD96EDA6ADF2A640EDF6407D0EF
:1006E800A751020DF350B10FD96EDA6ADF6A020E14
:1006F800A81920E1A86BA751020DF350B10FD96ECC
:10070800DA6ADF06A751020DF350B10FD96EDA6A23
:10071800DF5008E0A751020DF350B10FD96EDA6A25
:10072800DE2808E1A751020DF350B10FD96EDA6A3D
:10073800640EDF6E020EA61937E1A80512E1A86B58
:10074800A751020DF350B20FD96EDA6ADF2A640E90
:10075800DF6407D0A751020DF350B20FD96EDA6AE1
:10076800DF6A020EA81920E1A86BA751020DF35009
:10077800B20FD96EDA6ADF06A751020DF350B20F35
:10078800D96EDA6ADF5008E0A751020DF350B20FB4
:10079800D96EDA6ADE2808E1A751020DF350B20FCC
:1007A800D96EDA6A640EDF6E040EA8195CE1CF6BAD
:1007B800D06BD0BF05D0D0514DE1050ECF5D4AE2D8
:1007C800CFC09BF0D0C09CF0D8909B379C379B51F2
:1007D8009C1106E0D890CF35A16FD035A26F03D019
:1007E800A26B0B0EA16FA1C021F0A2C022F0CF51C5
:1007F800020DF350B30FD96EDA6ADF5066EC15F0CC
:10080800CFC09BF0D0C09CF0D89000019B379C379C
:100818009B29216E000E9C21226ECF51020DF350B0
:10082800B40FD96EDA6ADF5066EC15F00001CF51CB
:10083800020DF350B30FD96EDA6ACF51020DF3509F
:10084800A90FE16EE26ADECFE6FFDDCFE5FFCF4B11
:10085800D02BAFD7CBEC16F064EC13F0060E23ECDC
:1008680018F0CBEC16F0070E0001A81906E1A86BEA
:10087800A66B040EDE6FCBEC16F0040E0001DE1939
:1008880001E087D052904FC02DF04EC02EF04DC0E1
:100898002FF04CC030F04BC031F0A6C032F05150B0
:1008A80095EC0AF0030E0001A81908E1060E1E6E69
:1008B800A62BA6517AEC17F00001A66FA65109E005
:1008C800A6510508A46F000ED8A0E82A0008A56F55
:1008D80003D0A56B060EA46FA80505E1A4514B0F24
:1008E800D96EDA6ADF2A020EA81930E1A4514B0F3B
:1008F800D96EDA6ADF062AD01E6A990E1F6EA451D5
:100908004B0FACEC12F02BD0010E1E6E120E1F6EA8
:10091800A4514B0FACEC12F022D0010E1E6E310E1A
:100928001F6EA4514B0FACEC12F019D01E6A240EA6
:100938001F6EA4514B0FACEC12F011D01E6A600E62
:100948001F6EA4514B0FACEC12F009D0A651D4E0A5
:10095800010ADAE0030AE1E0010AE8E0EFD7040E51
:100968000001A8190CE14B0E11EC16F0CBEC16F0B7
:1009780064EC13F0060E23EC18F0CBEC16F0070E1F
:100988000001A81906E1A86BA66B050EDE6FCBEC7B
:1009980016F0050E0001DE1963E15290A6517BECBA
:1009A80009F0030E0001A81909E1A86B030E1E6ED9
:1009B800A62BA6517AEC17F00001A66F040EA81911
:1009C80046E1A65120E121EC11F01E0EB36F640E32
:1009D800B46F320EB56F460EB66F320EB76FB86F82
:1009E800500EB96F1E0EBA6F640EBB6F0F0EBC6F40
:1009F800CA6BC96BCBEC16F064EC13F0060E23EC53
:100A080018F0CBEC16F00001A6050CE1DF0E11EC96
:100A180016F0CBEC16F064EC13F0060E23EC18F08D
:100A2800CBEC16F0020E0001A61911E1276A100E90
:100A3800266E080E296E286864EC16F0CBEC16F0CA
:100A480064EC13F0060E23EC18F0CBEC16F0070E4E
:100A58000001A81905E1A66B010EDE6FCBEC16F0BC
:100A680052B052B412D08040E8423F0B070B00014D
:100A7800A36F52B203D0A351D10F02D0A351D70F05
:100A8800D96EDA6ADF506B6E04D00001C56BC66B95
:100A98006B6A82B6CDD4D0EC17F0C69AC4EC14F0C9
:100AA8009D8A9E9AC5D48FC087F090C088F08A6BC3
:100AB8000A0E896F910E9AEC16F0226A910E236E37
:100AC800246A080E34EC0EF0226A1F0E236E350ECF
:100AD800246E0C0E256E100E28EC13F08DC087F0D6
:100AE8000001886B8A6B0A0E896F910E9AEC16F0DA
:100AF800630E00018D6508D0226A910E236E246A68
:100B0800280E34EC0EF00FD0226AEF0E236E3F0E43
:100B1800246E280E34EC0EF0226A910E236E246A9D
:100B2800300E34EC0EF0226AF70E236E3F0E246E60
:100B3800400E34EC0EF08EC087F00001886B8A6B93
:100B48000A0E896F910E9AEC16F0630E00018E65FD
:100B580008D0226A910E236E246A500E34EC0EF0EF
:100B68000FD0226AEF0E236E3F0E246E500E34EC27
:100B78000EF0226A910E236E246A580E34EC0EF0A1
:100B8800CEC087F00001886B8A6B0A0E896F910EC0
:100B98009AEC16F0020E226E910E236E246A580EFD
:100BA80034EC0EF0226A1F0E236E350E246E100EE2
:100BB800256E680E28EC13F00001C8BF21D0C8517B
:100BC80003E1640EC75D1CE3020E226EEC0E236E79
:100BD8003F0E246E100E34EC0EF0C5C087F0C6C070
:100BE80088F000018A6B0A0E896F910E9AEC16F054
:100BF800020E226E910E236E246A100E34EC0EF053
:100C0800020E226E720E236E300EC0EC0EF0020E33
:100C1800226EFB0E236E3F0E246E380E34EC0EF05F
:100C2800020E226E6D0E236E400EC0EC0EF0020E08
:100C3800226E1F0E236E350E246E100E256E680E62
:100C480028EC13F00001C8BF22D0C85103E1640E9C
:100C5800C75D1DE3C0C072F0C1C073F0C2C074F0BC
:100C6800C3EC10F072C087F073C088F08A6B0A0E6C
:100C7800896F910E9AEC16F0040E226E910E236E77
:100C8800246A100E34EC0EF00001C76BC86BC74B1A
:100C9800C82B040E226E1F0E236E350E246E210EF5
:100CA800256E300E28EC13F0BDC072F0BEC073F094
:100CB800BFC074F0C3EC10F072C087F073C088F046
:100CC8008A6B0A0E896F910E9AEC16F0040E226E4A
:100CD800910E236E246A500E34EC0EF02D6A200E0D
:100CE8002E6E410E2F6EBDC02AF0BEC02BF0BFC0C5
:100CF8002CF02CEC0FF02AC072F02BC073F02CC033
:100D080074F0C3EC10F072C081F073C082F0846B91
:100D18000A0E836F0BEC14F081C087F082C088F054
:100D28008A6B0A0E896F910E9AEC16F0040E226EE9
:100D3800910E236E246A600E34EC0EF0040E226EBF
:100D4800F90E236E3F0E246E580E34EC0EF0040E8E
:100D5800226E560E236E680EC0EC0EF0C0C01EF058
:100D6800C1C01FF0C2C020F0216AA00E226E420E40
:100D7800236E6CEC14F001E3528452A00CD0060EE2
:100D8800226E1F0E236E350E246E180E256E000E71
:100D980028EC13F00BD0060E226E1F0E236E350EB4
:100DA800246E190E256E000E28EC13F052B20CD0EA
:100DB800060E226E1F0E236E350E246E3B0E256E18
:100DC800700E28EC13F00BD0060E226E1F0E236E49
:100DD800350E246E3C0E256E700E28EC13F052A4CE
:100DE8001200060E226E1F0E236E350E246E400E64
:100DF800256E280E28EC13F0060E226E1F0E236EA9
:100E0800350E246E120E256E380E28EC13F0529013
:100E18001200020E226EEE0E236E3F0E246E100E8E
:100E280034EC0EF0040E226EEE0E236E3F0E246E8E
:100E3800100E34EC0EF0060E226EEE0E236E3F0EF0
:100E4800246E100E34EC0EF0030E1E6E000191514C
:100E58007AEC17F0020DF350020F226EF40E236E97
:100E68003F0E246E100E34EC0EF0226A1F0E236E15
:100E7800350E246E1A0E256E200E28EC13F0226A09
:100E88001F0E236E350E246E1B0E256E300E28ECB9
:100E980013F0226A1F0E236E350E246E1C0E256E6B
:100EA800400E28EC13F0226A1F0E236E350E246EB6
:100EB8001D0E256E500E28EC13F0226A1F0E236EAD
:100EC800350E246E2A0E256E600E28EC13F0226A69
:100ED8001F0E236E350E246E2B0E256E700E28EC19
:100EE80013F0020E226E1F0E236E350E246E0C0EAA
:100EF800256E200E28EC13F0020E226E1F0E236EB4
:100F0800350E246E0D0E256E300E28EC13F0020EF1
:100F1800226EFD0E236E3F0E246E400E34EC0EF052
:100F28008FC087F090C088F000018A6B0A0E896F25
:100F3800920E9AEC16F0020E226E920E236E246A1E
:100F4800500E34EC0EF0040E226E1F0E236E350E7A
:100F5800246E2C0E256E200E28EC13F0040E226E43
:100F68001F0E236E350E246E2D0E256E300E28ECC6
:100F780013F0040E226E1F0E236E350E246E2E0EF5
:100F8800256E400E28EC13F0040E226EFD0E236E23
:100F98003F0E246E500E34EC0EF08DC087F0000129
:100FA800886B8A6B0A0E896F920E9AEC16F0040E03
:100FB800226E920E236E246A600E34EC0EF00A0E36
:100FC80000018D6109D0040E226EEE0E236E3F0ED5
:100FD800246E680E34EC0EF0640E00018D6109D0A9
:100FE800040E226EEF0E236E3F0E246E700E34EC4C
:100FF8000EF0060E226E1F0E236E350E246E0E0E98
:10100800256E200E28EC13F0060E226E1F0E236E9E
:10101800350E246E0F0E256E300E28EC13F0060EDA
:10102800226E1F0E236E350E246E100E256E400E96
:1010380028EC13F0060E226E1F0E236E350E246E5A
:10104800110E256E500E28EC13F0060E226EFD0EC2
:10105800236E3F0E246E600E34EC0EF08EC087F0C7
:101068000001886B8A6B0A0E896F920E9AEC16F053
:10107800060E226E920E236E246A680E34EC0EF071
:101088000A0E00018E6109D0060E226EEE0E236E46
:101098003F0E246E700E34EC0EF0640E00018E616B
:1010A800640C060E226EEF0E236E3F0E246E780E31
:1010B80034EF0EF0226A1F0E236E350E246E256A59
:1010C800180E28EC13F0226A1F0E236E350E246EBC
:1010D800010E256E280E28EC13F0226A1F0E236ECF
:1010E800350E246E020E256E380E28EC13F0226A97
:1010F8001F0E236E350E246E030E256E480E28EC47
:1011080013F0226A1F0E236E350E246E040E256E10
:10111800580E28EC13F0226A1F0E236E350E246E2B
:10112800050E256E680E28EC13F0020E226EF40EE2
:10113800236E3F0E246E080E34EC0EF0020E226E63
:101148001F0E236E350E246E020E256E180E28EC27
:1011580013F0020E226E1F0E236E350E246E030E40
:10116800256E280E28EC13F0020E226EFD0E236E5B
:101178003F0E246E380E34EC0EF04AC087F00001A2
:10118800886B8A6B0A0E896F8D0E9AEC16F00A0E20
:101198004A6009D0020E226EEF0E236E3F0E246EB7
:1011A800480E34EC0EF0020E226E8D0E236E246A69
:1011B800400E34EC0EF0C9C087F00001886B8A6BD2
:1011C8000A0E896F8D0E9AEC16F0020E226E8D0EA5
:1011D800236E246A600E34EC0EF08D0E1E6E515094
:1011E8003FEC14F0040E226E8D0E236E246A180E46
:1011F80034EC0EF0040E226EF10E236E3F0E246EB8
:10120800080E34EC0EF0040E226E1F0E236E350EFF
:10121800246E060E256E280E28EC13F08D0E1E6E19
:101228004F503FEC14F0040E226E8D0E236E246A8C
:10123800380E34EC0EF0040E226E1F0E236E350E9F
:10124800246E070E256E480E28EC13F08D0E1E6EC8
:101258004E503FEC14F0040E226E8D0E236E246A5D
:10126800580E34EC0EF0040E226E1F0E236E350E4F
:10127800246E080E256E680E28EC13F08D0E1E6E77
:101288004D503FEC14F0060E226E8D0E236E246A2C
:101298001E0E34EC0EF0060E226EFD0E236E3F0E6F
:1012A800246E2E0E34EC0EF08D0E1E6E4C503FEC5C
:1012B80014F0060E226E8D0E236E246A360E34EC60
:1012C8000EF0060E226EFD0E236E3F0E246E460EA5
:1012D80034EC0EF08D0E1E6E4B503FEC14F0060EE3
:1012E800226E8D0E236E246A4C0E34EF0EF02D6E96
:1012F800020E226EEE0E236E3F0E246E000E34ECAC
:101308000EF0040E226EEE0E236E3F0E246E000EBB
:1013180034EC0EF0060E226EEE0E236E3F0E246E97
:10132800000E34EC0EF0030E1E6E2D507AEC17F002
:10133800020DF350020F226EF40E236E3F0E246E40
:10134800000E34EC0EF0226A1F0E236E350E246E4A
:10135800280E256E200E28EC13F0226A1F0E236E2D
:10136800350E246E290E256E300E28EC13F0226AF5
:101378001F0E236E350E246E2A0E256E400E28ECA5
:1013880013F0226A1F0E236E350E246E2B0E256E67
:10139800500E28EC13F0020E226E1F0E236E350E2F
:1013A800246E330E256E100E28EC13F0020E226EFA
:1013B8001F0E236E350E246E340E256E200E28EC7B
:1013C80013F0020E226E1F0E236E350E246E1C0EB5
:1013D800256E300E28EC13F0020E226E1F0E236EBF
:1013E800350E246E1D0E256E400E28EC13F0020EED
:1013F800226E1F0E236E350E246E2A0E256E500E99
:1014080028EC13F0020E226E1F0E236E350E246E8A
:101418002B0E256E600E28EC13F0040E226E1F0EA4
:10142800236E350E246E330E256E100E28EC13F045
:10143800040E226E1F0E236E350E246E340E256E9A
:10144800200E28EC13F0040E226E1F0E236E350EAC
:10145800246E240E256E300E28EC13F0040E226E36
:101468001F0E236E350E246E250E256E400E28ECB9
:1014780013F0040E226E1F0E236E350E246E2A0EF4
:10148800256E500E28EC13F0040E226E1F0E236EEC
:10149800350E246E2B0E256E600E28EC13F0060E0A
:1014A800226E1F0E236E350E246E350E256E100E1D
:1014B80028EC13F0060E226E1F0E236E350E246ED6
:1014C800360E256E200E28EC13F0060E226E1F0E27
:1014D800236E350E246E370E256E300E28EC13F071
:1014E800060E226E1F0E236E350E246E380E256EE4
:1014F800400E28EC13F0060E226E1F0E236E350EDA
:10150800246E390E256E500E28EC13F0060E226E4E
:101518001F0E236E350E246E3A0E256E600E28EFD0
:1015280013F0336E226A1F0E236E350E246E220EC0
:10153800256E100E28EC13F0226A1F0E236E350E4E
:10154800246E230E256E200E28EC13F0226A1F0E3F
:10155800236E350E246E240E256E300E28EC13F003
:10156800226A1F0E236E350E246E250E256E400E40
:1015780028EC13F0226A1F0E236E350E246E2A0EF5
:10158800256E500E28EC13F0226A1F0E236E350EBE
:10159800246E2B0E256E600E28EC13F0020E226EC0
:1015A800F10E236E3F0E246E080E34EC0EF0340E4E
:1015B8001E6E33503FEC14F0020E226E340E236E72
:1015C800246A180E34EC0EF0020E226E1F0E236EE3
:1015D800350E246E060E256E280E28EC13F0340EF8
:1015E8001E6E2D503FEC14F0020E226E340E236E48
:1015F800246A380E34EC0EF0020E226E1F0E236E93
:10160800350E246E070E256E480E28EC13F0340EA6
:101618001E6E2E503FEC14F0020E226E340E236E16
:10162800246A580E34EC0EF0020E226E1F0E236E42
:10163800350E246E080E256E680E28EC13F0340E55
:101648001E6E2F503FEC14F0040E226E340E236EE3
:10165800246A1C0E34EC0EF0040E226EFD0E236E6E
:101668003F0E246E2C0E34EC0EF0340E1E6E3050ED
:101678003FEC14F0040E226E340E236E246A340EEE
:1016880034EC0EF0040E226EFD0E236E3F0E246E17
:10169800440E34EC0EF0340E1E6E31503FEC14F054
:1016A800040E226E340E236E246A4C0E34EC0EF0B7
:1016B800030E32600AD0020E226E5F0E236E325085
:1016C800200DF350200FC0EF0EF0040E226E5F0EB7
:1016D800236E3250180DF350DC0FC0EF0EF02A6E57
:1016E80029505DE128C022F0236A2A5018EC15F031
:1016F80028C022F0030E236E2A50060F18EC15F0AE
:1017080028C022F0030E236E2A500C0F18EC15F097
:1017180028C022F0050E236E2A50120F18EC15F07F
:1017280028C022F0070E236E2A50180F18EC15F067
:1017380028C022F0020E236E2A501E0F18EC15F056
:1017480028C022F0030E236E2A50240F18EC15F03F
:1017580028C022F0040E236E2A502A0F18EC15F028
:1017680028C022F0020E236E2A50300F18EC15F014
:1017780028C022F0010E236E2A50360F18EC15F0FF
:1017880028C022F0236A2A503C0F18EC15F028C014
:1017980022F0040E236E2A50420F18EF15F028C0CD
:1017A80022F0100E236E2A5018EC15F028C022F0F3
:1017B800100E236E2A50060F18EC15F028C022F0E0
:1017C800100E236E2A500C0F18EC15F028C022F0CA
:1017D800060E236E2A50120F18EC15F028C022F0BE
:1017E8000A0E236E2A50180F18EC15F028C022F0A4
:1017F8000E0E236E2A501E0F18EC15F028C022F08A
:101808000E0E236E2A50240F18EC15F028C022F073
:101818000E0E236E2A502A0F18EC15F028C022F05D
:101828000F0E236E2A50300F18EC15F028C022F046
:10183800080E236E2A50360F18EC15F028C022F037
:101848000D0E236E2A503C0F18EC15F028C022F01C
:10185800060E236E2A50420F18EC15F028C022F00D
:10186800090E236E2A50480F18EC15F028C022F0F4
:101878000C0E236E2A504E0F18EC15F028C022F0DB
:101888000B0E236E2A50540F18EF15F03AC03EF095
:101898003F6A406A39343E3601E33F803E500001DA
:1018A800626F3DC03EF03F6A406A3C343E3601E319
:1018B8003F803E50616F625109E06151625D0DE207
:1018C8006251615D3E6E180E3E6407D03BC038F031
:1018D8003CC039F03DC03AF01200615109E0625154
:1018E800615D0DE26151625D3E6E180E3E6407D087
:1018F80038C038F039C039F03AC03AF01200060E54
:10190800606F3ABE608F3DBE608D398E3A6A3C8EFC
:101918003D6A6151625D18E2D8903B363C363D36EF
:101928006107625161190CE0600760C03EF0070E64
:101938003E1606E0F1D7D8903A3239323832622B67
:10194800615162191BE0F7D76251615D17E2D890C7
:10195800383639363A366207625161190CE0600749
:1019680060C03EF0070E3E1606E0F1D7D8903D3233
:101978003C323B32612B61516219F8E160AF07D00C
:10198800381E391E3A1E382A000E39223A2260AD16
:1019980007D03B1E3C1E3D1E3B2A000E3C223D222A
:1019A800606B38503B2639503C223A503D223DAEC0
:1019B80009D03B1E3C1E3D1E3B2A000E3C223D2208
:1019C800010E606F3BC01EF03CC01FF03DC020F010
:1019D80062C021F060C022F067EC12F01EC038F03F
:1019E8001FC039F020C03AF012009EACFED72D6A15
:1019F800A00E2E6E3F0E2F6EC450030B266E276A64
:101A080049EC16F026C02AF027C02BF028C02CF08D
:101A18002CEC0FF02AC038F02BC039F02CC03AF06B
:101A2800490E2D6E9D0E2E6E3B0E2F6EC3508DEC03
:101A380017F026C02AF027C02BF028C02CF02CEC79
:101A48000FF02AC03BF02BC03CF02CC03DF04AEC14
:101A58000CF038C069F039C06AF03AC06BF02D6AF2
:101A6800A00E2E6E3F0E2F6EC450030B266E276AF3
:101A780049EC16F026C02AF027C02BF028C02CF01D
:101A88002CEC0FF02AC038F02BC039F02CC03AF0FB
:101A9800490E2D6E9D0E2E6E3B0E2F6EC3508DEC93
:101AA80017F026C02AF027C02BF028C02CF02CEC09
:101AB8000FF02AC03BF02BC03CF02CC03DF04AECA4
:101AC8000CF038C0BDF039C0BEF03AC0BFF0BDC0A0
:101AD8002AF0BEC02BF0BFC02CF0540E2D6E630E42
:101AE8002E6E410E2F6E2CEC0FF02AC0BDF02BC0CD
:101AF800BEF02CC0BFF0420E0001636F360E646F5B
:101B0800430E656F2D6E300E2E6E430E2F6E69C01C
:101B18002AF06AC02BF06BC02CF02CEC0FF02AC016
:101B280066F02BC067F02CC068F02DEC16F063C08F
:101B3800C0F064C0C1F065C0C2F09E9C1200206A6B
:101B4800216A226A236A83BC83AE04D081AC02D0A6
:101B580081BE000C010E1F6EF40E1E6E47EC18F0CD
:101B680083BC1ED00FD023BE08D0235022100AE118
:101B7800600E205CEA0E215805E2202A000E212280
:101B88002222232283ACEFD723BE010C235022103C
:101B980006E15F0E205CEA0E2158D8A0010C050C66
:101BA80083BE1ED00FD023BE08D0235022100AE1D6
:101BB800600E205CEA0E215805E2202A000E212240
:101BC8002222232283AEEFD723BE020C23502210F9
:101BD80006E15F0E205CEA0E2158D8A0020C060C24
:101BE80081BC1ED00FD023BE08D0235022100AE19A
:101BF800600E205CEA0E215805E2202A000E212200
:101C08002222232281ACEFD723BE030C23502210BB
:101C180006E15F0E205CEA0E2158D8A0030C070CE1
:101C280081BE000C0FD023BE08D0235022100AE139
:101C3800600E205CEA0E215805E2202A000E2122BF
:101C48002222232281AEEFD723BE040C2350221078
:101C580006E15F0E205CEA0E2158D8A0040C080C9F
:101C68002B6E2C6A2A6A6ED02A502324256E000E09
:101C78002420266E25C0F6FF26C0F7FFF86A020E5C
:101C8800F76403D00800F55005D0F6CFE1FFF7CF91
:101C9800E2FFE750E00F296E780E2B6402D02B6A22
:101CA800222A22C020F02B50C2EC17F02C6A2950AF
:101CB800100D690E256E320E266EF3502526F4504F
:101CC80026222C502526000E262225C0F6FF26C0E7
:101CD800F7FF0800F5502DEC18F02C2A070E2C649D
:101CE800E6D72228206E2B50C2EC17F02C6A295018
:101CF800256E266A253A263AF00E261625500F0B31
:101D08002612F00E2516690E276E320E286E255003
:101D18002726265028222C502726000E2822080E77
:101D28002726000E282227C0F6FF28C0F7FF080044
:101D3800F5502DEC18F02C2A070E2C64D8D7080E75
:101D48002B262A2A2A502324256E000E2420266EAC
:101D580025C0F6FF26C0F7FFF86A020EF76403D025
:101D68000800F55005D0F6CFE1FFF7CFE2FFE750C6
:101D7800000901E079D71200286E296A0DD01F0EDC
:101D880009D0200E07D0210E05D0220E03D0230E35
:101D980001D0240E296E0DD023504B0AF8E0040A16
:101DA800F4E0190AECE0090AF4E0320AECE01F0A50
:101DB800E8E022C020F02850C2EC17F02A6A295027
:101DC800100D690E246E320E256EF3502426F45041
:101DD80025222A502426000E252224C0F6FF25C0DD
:101DE800F7FF0800F5502DEC18F02A2A070E2A6490
:101DF800E6D72228206E2850C2EC17F02A6A29500C
:101E0800246E256A243A253AF00E251624500F0B25
:101E18002512F00E2416690E266E320E276E2450F7
:101E28002626255027222A502626000E2722080E6D
:101E38002626000E272226C0F6FF27C0F7FF080037
:101E4800F5502DEC18F02A2A070E2A64D8D7070C6B
:101E58002CC030F0316A326A2B34303601E33180DD
:101E68003050336E335004E12A6A2B6A2C6A120010
:101E78002FC030F0316A326A2E34303601E33180B7
:101E88003050346E345004E12A6A2B6A2C6A1200EE
:101E980034507B0F33262CC034F02F50341A800E68
:101EA80034162B8E2E8E2F6A2C6A2A502D02F4CFD0
:101EB800F3FFF46AF3CF35F0F4CF36F0376A2A50DF
:101EC8002E02F3503526F4503622000E37222B50BE
:101ED8002D02F3503526F4503622000E37222B50AF
:101EE8002E02F3503626F450372237AE05D0D8905C
:101EF800373236323532332AD890373236323532A5
:101F080035C01EF036C01FF037C020F033C021F0B6
:101F180034C022F067EC12F01EC02AF01FC02BF06C
:101F280020C02CF0120003EC18F09594959295902F
:101F38008392010E1F6EF40E1E6E47EC18F083821A
:101F48008394AE0E36EC18F0000E36EC18F0100E36
:101F580036EC18F0400E36EC18F0810E36EC18F01E
:101F6800CF0E36EC18F0A10E36EC18F0C80E36EC91
:101F780018F0A60E36EC18F0A80E36EC18F03F0E46
:101F880036EC18F0D30E36EC18F0000E36EC18F0DC
:101F9800D50E36EC18F0800E36EC18F0D90E36EC6B
:101FA80018F0F10E36EC18F0DA0E36EC18F0120EC6
:101FB80036EC18F0DB0E36EC18F0400E36EC18F064
:101FC800200E36EC18F0020E36EC18F08D0E36ECBA
:101FD80018F0140E36EC18F0A40E36EC18F0A60E15
:101FE80036EC18F0AF0E36EC18F0CBEC16F0000E0D
:101FF800206AC2EF17F0286E2850266E276AD890FC
:1020080026362736D89026362736D89026362736CD
:10201800080E2624296E000E27202A6E29C021F0DA
:102028002AC022F04A5066EC15F02928216E000ECD
:102038002A20226E5150B1EC17F066EC15F0020E12
:102048002924216E000E2A20226E4F50B1EC17F081
:1020580066EC15F0030E2924216E000E2A20226E4C
:102068004E50B1EC17F066EC15F0040E2924216EE1
:10207800000E2A20226E4D50B1EC17F066EC15F0D8
:10208800050E2924216E000E2A20226E4C50B1EC38
:1020980017F066EC15F0060E2924216E000E2A2092
:1020A800226E4B50B1EC17F066EC15F0070E2924A0
:1020B800216E000E2A20226E4950B1EC17F066EF0F
:1020C80015F065C069F000016A6B6B6B64356937A0
:1020D80001E36A816951706F705104E1636B646B4D
:1020E800656B120068C069F06A6B6B6B673569379E
:1020F80001E36A816951716F715104E1636B646B2B
:10210800656B12006D6B6E6B6F6B7151890F705F31
:1021180065C071F06851711B800E7117648F656B13
:10212800678F686B180E6C6FD8906D376E376F3786
:102138006651635D675164596851655907E3665193
:10214800635F6751645B6851655B6D81D8906337E5
:10215800643765376C2FE8D76DC01EF06EC01FF06E
:102168006FC020F070C021F071C022F067EC12F04F
:102178001EC063F01FC064F020C065F0120074C078
:1021880076F00001776B786B7335763701E37781EA
:102198007651806F805105E1726B736B746B756B50
:1021A8001200170E766F72C077F073C078F074C0A3
:1021B80079F076297A6F04D0D890793378337733E9
:1021C8007A2FFAD7000177517B6F738F746B725136
:1021D8007C6F73517D6F74517E6F7F6B8E0E805F45
:1021E80080AF0CD08051800A8F0FD6E3D8907F3310
:1021F8007E337D337C33803FF9D70CD0170E806552
:1022080007D0CAD7D8907C377D377E377F3780078D
:102218008051F8E17B5108E07F1F7E1F7D1F7C6D98
:10222800000E7D237E237F237CC072F07DC073F077
:102238007EC074F07FC075F01200226A216A1E0EFB
:1022480066EC15F0226A010E216E640E66EC15F03C
:10225800226A020E216E320E66EC15F0226A030E17
:10226800216E460E66EC15F0226A040E216E320EBF
:1022780066EC15F0226A050E216E320E66EC15F03A
:10228800226A060E216E500E66EC15F0226A070EC1
:10229800216E1E0E66EC15F0226A080E216E640E81
:1022A80066EC15F0226A090E216E0F0E66EC15F029
:1022B800226A0A0E216E000E66EC15F0226A0B0ED9
:1022C800216E1E0E66EC15F01E0E0001A96F640E3D
:1022D800AA6F320EAB6F460EAC6F320EAD6FAE6F9B
:1022E800500EAF6F1E0EB06F640EB16F0F0EB26F4F
:1022F8000F0C046A036A1E0E8BEC15F0046A010EBB
:10230800036E640E8BEC15F0046A020E036E320E37
:102318008BEC15F0046A030E036E460E8BEC15F079
:10232800046A040E036E320E8BEC15F0046A050E77
:10233800036E320E8BEC15F0046A060E036E500E17
:102348008BEC15F0046A070E036E1E0E8BEC15F06D
:10235800046A080E036E640E8BEC15F0046A090E0D
:10236800036E0F0E8BEC15F0046A0A0E036E000E56
:102378008BEC15F0046A0B0E036E1E0E8BEC15F039
:102388001E0E0001A96F640EAA6F320EAB6F460EC7
:10239800AC6F320EAD6FAE6F500EAF6F1E0EB06FDA
:1023A800640EB16F0F0EB26F0F0C2C6E25C029F0A2
:1023B80026C02AF029C01EF02AC01FF027C020F02E
:1023C80028C021F041EC15F01EC029F01FC02AF0EA
:1023D8002C2A29502A10EEE12C50D96EDA6ADF6ACD
:1023E8002C0625C01EF026C01FF027C020F028C0EC
:1023F80021F0F2EC15F01E502B6E25C01EF026C001
:102408001FF027C020F028C021F041EC15F01EC0B5
:1024180025F01FC026F0090E2B6402D0070E2B26CC
:10242800300E2B262C50D96EDA6A2BC0DFFF2C0613
:1024380025502610D6E12C2A1200226A800E236E1F
:10244800040E246E3F0E256E3D0E266E000E98EC8F
:1024580014F0040E226E1F0E236E350E246E1F0E0E
:10246800256E140E28EC13F0040E226E1F0E236E38
:10247800350E246E3D0E256E2C0E28EC13F0040E3E
:10248800226E1F0E236E350E246E3E0E256E440EF0
:1024980028EC13F0040E226E1F0E236E350E246EE8
:1024A8003F0E256E5C0E28EC13F0060E286E000E0B
:1024B800296E1C0E73EC0BF0070E286E010E296EA8
:1024C800110E73EF0BF0215004E01E501F10201066
:1024D80009E11E6A1F6A206A1200212AD890203258
:1024E8001F321E32236A246AFE0E2014256E2350E2
:1024F800241025100AE0F1D7212A1E2A000E1F22D7
:102508002022D89020321F321E32236A246A20509B
:10251800256E23502410251006E0EED72106D8900A
:102528001E361F3620361FBE03D0020E2160F6D796
:1025380021A01F9ED890213221502012225001E064
:10254800208E1EC01EF01FC01FF020C020F01200F9
:10255800226E2250D96EDA6A1E50DE5C05E32250E4
:10256800D96EDA6ADE2806E12250D96EDA6A1FC00F
:10257800DFFF12002250D96EDA6ADE501F5C06E2D5
:102588002250D96EDA6A1EC0DFFF12002250D96EBF
:10259800DA6ADF500F0B216E0A0E21180AE1225069
:1025A800D96EDA6A2250E16EE26AE750F00B100F3A
:1025B800DF6E0F0E2118D8A412002250D96EDA6AE5
:1025C8002250E16EE26AE750F00B090FDF6E12004D
:1025D800816F0001666BC80E676F420E686F2D6AC7
:1025E800AA0E2E6E430E2F6E81518DEC17F026C069
:1025F8002AF027C02BF028C02CF02CEC0FF02AC0B2
:1026080063F02BC064F02CC065F065EC10F063C07B
:1026180072F064C073F065C074F0C3EC10F072C05F
:1026280082F073C083F08351CC6F82C0CDF0CCC0F0
:1026380078FFCDC079FFCCC076FFCDC077FFCCC086
:1026480074FFCDC075FF1200286E2550200DF3CF02
:1026580029F0F4CF2AF022C020F02850C2EC17F05D
:102668002B6A29502324266E2A502420276E26C040
:10267800F6FF27C0F7FF0800F5502DEC18F0294A9F
:102688002A2A2B2A0F0E2B64ECD72228206E2850DA
:10269800C2EC17F02B6A29502324266E2A502420D6
:1026A800276E26C0F6FF27C0F7FF0800F5502DEC6F
:1026B80018F0294A2A2A2B2A0F0E2B64ECD70F0C64
:1026C800020E226E1F0E236E350E246E1C0E256E12
:1026D800180E28EC13F0020E226E1F0E236E350E14
:1026E800246E1D0E256E280E28EC13F0020E226EA5
:1026F8001F0E236E350E246E2A0E256E380E28EC1A
:1027080013F0020E226E1F0E236E350E246E2B0E52
:10271800256E480E28EC13F0020E226E4F0E236E23
:10272800580EC0EC0EF0020E226E4B0E236E600E99
:10273800C0EF0EF08484BF0E0FEC17F0216A226AF6
:1027480021504B0FD96EDA6AB3EC16F0DF6E214ACE
:10275800222A22BEF5D7225003E1070E215CF0E3BE
:102768008494600E4B64600C8484BE0E0FEC17F0EA
:10277800000EF9EC16F0226A010E216E21504B0F63
:10278800D96EDA6ADF50F9EC16F0214A222A22BE05
:10279800F5D7225003E1080E215CF0E3000E0FECA0
:1027A80017F08494120000EEA9F0290EEE6AE806EC
:1027B800FDE1526A00EE41F0090EEE6AE806FDE11D
:1027C800320EF66E300EF76E000EF86E00EED2F096
:1027D80010EE14F00900F5CFEEFFE550E150FAE1F4
:1027E800040EF66E310EF76E000EF86E00EE4AF02B
:1027F80010EE08F00900F5CFEEFFE550E150FAE1E0
:1028080053905392000EF86E0001A3EF01F0866B0F
:1028180082AF06D0816D821FD8B0822B010E866FE1
:1028280084AF04D0836D841FD8B0842B8351841166
:1028380017E0010E856F04D0D89083378437852B35
:1028480084AFFAD78351815D8451825904E383515F
:10285800815F8451825BD89084338333852FF2D78C
:10286800865104E0816D821FD8B0822B81C081F02F
:1028780082C082F012001F6E0A0E1F6013D01E5015
:10288800D96EDA6A300EDF6E1E50D96EDA6AD92A2E
:102898001F50300FDF6E1E50D96EDA6A020ED9262D
:1028A800DF6A000C1E50D96EDA6A1F380F0B300F22
:1028B800DF6E1E50D96EDA6AD92A1F500F0B300FFF
:1028C800DF6E1E50D96EDA6A020ED926DF6A000C56
:1028D80020AE0DD0246A256A800E266E1E50245C18
:1028E8001E6E1F5025581F6E20502658206E23AE8E
:1028F8000DD0246A256A800E266E2150245C216E34
:1029080022502558226E23502658236E800E201AF6
:10291800231A21501E5C22501F582350205802E2CF
:10292800D8901200D88012002C6E296A2A6A24C016
:1029380027F0070E271600E122C02DF01DD02DC06C
:1029480020F02C50C2EC17F02CC02BF011D02950DD
:102958002524276E2A502620286E27C0F6FF28C077
:10296800F7FF0800F5502DEC18F0294A2A2A2B2ADF
:1029780023502B5CECE32D2A24502D5CE0E312005D
:10298800E10E226E3F0E236EB0EC15F0D00E226ED3
:102998003F0E236EB0EC15F0880E226E3F0E236EAC
:1029A800B0EC15F0BB0E226E3F0E236EB0EC15F0A6
:1029B8006A0E226E3F0E236EB0EC15F0A30E226E47
:1029C8003F0E236EB0EC15F03F0E226E3F0E236EC5
:1029D800B0EF15F0E10E056E3F0E066ED1EC15F066
:1029E800D00E056E3F0E066ED1EC15F0880E056E02
:1029F8003F0E066ED1EC15F0BB0E056E3F0E066E4F
:102A0800D1EC15F06A0E056E3F0E066ED1EC15F08E
:102A1800A30E056E3F0E066ED1EC15F03F0E056E47
:102A28003F0E066ED1EF15F0266E7E0E266402D09C
:102A3800266A222A22C020F02650C2EC17F0276A04
:102A48002350060DB90E246E340E256EF35024263D
:102A5800F450252227502426000E252224C0F6FFF4
:102A680025C0F7FF0800F5502DEC18F0272A050EB1
:102A78002764E6D7060E2626060C226A236A20500B
:102A880021101BE0010E246E04D0D8902036213688
:102A9800242A21AEFAD7D8902236233620501E5C3D
:102AA80021501F5805E320501E5E21501F5A2280D6
:102AB800D89021322032242EEED722C01EF023C017
:102AC8001FF01200236E246A256A22C025F021C057
:102AD80024F08396060E6DEC18F01F6A640E1E6EC5
:102AE80047EC18F083861F6A640E1E6E47EC18F0D8
:102AF8008396020E6DEC18F025506DEC18F02450FA
:102B08006DEC18F023506DEC18F083861200056EFA
:102B1800066A076A04C007F003C006F08396060E2B
:102B28007BEC18F0026A640E016E57EC18F083868D
:102B3800026A640E016E57EC18F08396020E7BEC65
:102B480018F007507BEC18F006507BEC18F0055095
:102B58007BEC18F083861200266A276A266A276AA1
:102B680010D026502224246E27502320256E24C0FE
:102B7800F6FF25C0F7FF0800F55066EC18F0264A66
:102B8800272A22C01EF023C01FF03BEC17F01E506E
:102B9800265C1F502758E5E31200096A0A6A096A89
:102BA8000A6A10D009500524076E0A500620086EDC
:102BB80007C0F6FF08C0F7FF0800F55074EC18F0DE
:102BC800094A0A2A05C001F006C002F065EC17F0B0
:102BD8000150095C02500A58E5E312002050211008
:102BE80017E0010E226E04D0D89020362136222A12
:102BF80021AEFAD720501E5C21501F5804E3205004
:102C08001E5E21501F5AD89021322032222EF2D730
:102C18001EC01EF01FC01FF01200216E8484BE0E5D
:102C28000FEC17F0226A236A21502224D96EDA6A3F
:102C3800DF50F9EC16F0224A232A23BEF5D7235099
:102C480003E1070E225CF0E3000E0FEC17F084940A
:102C58001200000166516711681102E0800E681BBE
:102C680063C038F064C039F065C03AF066C03BF024
:102C780067C03CF068C03DF04AEC0CF038C063F027
:102C880039C064F03AC065F01200296A27AE06D050
:102C9800266C271ED8B0272A010E296E26C01EF0E2
:102CA80027C01FF0206A8E0E216E29C022F067EC23
:102CB80012F01EC026F01FC027F020C028F0120016
:102CC8002C6A2D6A26C02CF027C02DF009D02CC004
:102CD80021F02DC022F0000E66EC15F02C4A2D2AAA
:102CE80028282A6E000E29202B6E2A502C5C2B5087
:102CF8002D58EDE312000E6A0F6A08C00EF009C0E5
:102D08000FF009D00EC003F00FC004F0000E8BECDA
:102D180015F00E4A0F2A0A280C6E000E0B200D6EB5
:102D28000C500E5C0D500F58EDE312008C6F000133
:102D380088AF0AD08C51D96EDA6A2D0EDF6E8C2BD3
:102D4800876D881FD8B0882B87C025F088C026F0EB
:102D580089C027F08AC028F08C51D9EF11F09680ED
:102D68001F6A206A8398528684A05296D8901E3291
:102D780052B61E8E83881F4A202A20BEF3D72050C1
:102D880003E1080E1F5CEEE383981E501200216ACF
:102D98002150B00F36EC18F0010E36EC18F0100E7A
:102DA80036EC18F0206A000E2DEC18F0202A7F0E61
:102DB8002064F9D7212A070E2164EAD7070C226A72
:102DC800236A20C023F01FC022F08396030E6DEC07
:102DD80018F023506DEC18F022506DEC18F03FEC11
:102DE80018F0216E8386215012001E6E96901F6A7D
:102DF800206A849083981EB08480D8901E3283887D
:102E08001F4A202A20BEF5D7205003E1080E1F5C78
:102E1800F0E3839812001E6E96901F6A206A8490D1
:102E280083981EB08480D8901E3283881F4A202A37
:102E380020BEF5D7205003E1080E1F5CF0E383980D
:102E48001200056A066A03C006F002C005F0839600
:102E5800030E7BEC18F006507BEC18F005507BEC69
:102E680018F04FEC18F0046E8386045012001EC050
:102E780020F01FC021F002D0204A212A20C0F6FFEE
:102E880021C0F7FF0800F550F7E11E50205C1E6EC8
:102E98001F5021581F6E1200928492869288E30E6A
:102EA800B816DD0EB76EA490A380A382A384A38670
:102EB800A492A494A496480E636E626E616EB79C49
:102EC800480C01C003F002C004F002D0034A042AEF
:102ED80003C0F6FF04C0F7FF0800F550F7E1015002
:102EE800035C016E02500458026E12001F6E080E39
:102EF800206E216AD8901F342134216ED8901F3655
:102F08001E50215C02E31E50215E202EF3D7215073
:102F18001200296E29501E6E1F6A206A8E0E216EBD
:102F2800000E226E67EC12F01EC026F01FC027F0BC
:102F380020C028F012009390939293949396959AB8
:102F480093987F6A4F0E6F6E6E6A6B6A7A6A550E37
:102F58007B6E7D6A7C6A7E8E1200206E1E6A1F6AF6
:102F6800610E206006D020380F0B1E6E20500F0B0C
:102F78001F6E1E500A0DF3501F241200216E2050A0
:102F8800B00F36EC18F021380F0B100936EC18F09A
:102F980021500F0B36EF18F0948E948C320EAF6ED2
:102FA800AC98AA96AC84240EAC6E900EAB6E9E9A2A
:102FB800900C959896948398849484848E0E0FEC44
:102FC80017F0000EF9EC16F084941200948E948C8D
:102FD800320EAF6EAC98AA96AC84240EAC6E900EEE
:102FE800AB6E9E9A900C92809282380EC26E180E2A
:102FF800C16EC00EC06E9E9CC280C282C00C9488F6
:10300800949A949EC00EC76E200EC66EC688C79C42
:10301800C79E200C9488949A949EC00EC76E200E6A
:10302800C66EC688C79CC79E200C092421121806A4
:103038001821090612240100000001010116206E62
:1030480004D01F681E6847EC18F020062028F9E114
:1030580012001F6E83948380829A1F506DEC18F0C3
:10306800838412001F6E83948390829A1F506DECA4
:1030780018F083841200C9689EA6FED79E96C9CF11
:103088001EF01E5012001E06D8A01F061E28FBE1C7
:103098001F28F9E11200C9689EA6FED79E96C9CFDF
:1030A80001F0015012000106D8A002060128FBE138
:1030B8000228F9E11200958C958E938C938E948258
:1030C800948412001E6E1EC0ADFFACA2FED79E9A5D
:1030D80012001E6E1EC0C9FF9EA6FED79E96120045
:1030E800016E01C0ADFFACA2FED79E9A1200016E20
:1030F80001C0C9FF9EA6FED79E96120001000000DF
:1031080001010116959603EF18F095960EEF18F049
:103268000000000000000000000000000000000056
:1032780000000000F80000000000000033300000EB
:103288000000100C06100C060000000000000000F2
:103298000040C07840C0784000043F04043F040464
:1032A80000007088FC08300000001820FF211E0074
:1032B80000F008F000E018000000211C031E211E89
:1032C8000000F00888700000001E2123241927211F
:1032D8001010160E000000000000000000000000A2
:1032E80000000000E0180402000000000718204059
:1032F8000000020418E00000000040201807000049
:1033080000404080F0804040000202010F010202AC
:1033180000000000F0000000000101011F01010190
:1033280000000000000000000080B07000000000F5
:10333800000000000000000000000101010101017F
:103348000100000000000000000030300000000014
:1033580000000000008060180400601806010000EA
:103368000000E010080810E000000F102020100FE7
:1033780000001010F8000000000020203F2020006E
:1033880000007008080888700000302824222130C6
:103398000000300888884830000018202020110ECE
:1033A800000000C02010F8000000070424243F2477
:1033B8000000F80888880808000019212020110E4C
:1033C8000000E0108888180000000F112020110E5E
:1033D8000000380808C83808000000003F00000056
:1033E800000070880808887000001C222121221C17
:1033F8000000E010080810E0000000312222110F40
:1034080000000000C0C000000000000030300000D4
:103418000000000080000000000000806000000044
:10342800000000804020100800000102040810205D
:1034380000404040404040400004040404040404A8
:10344800000008102040800000002010080402013D
:10345800000878880000C83808000007380E010006
:1034680000808080008080800020203F2120000193
:10347800008080808080808000203F20003F2000E6
:103488003FE01008080810E0000F10202020100F5F
:103498000008F888C028180800203F200126382096
:1034A8000000000000000000008080808080808094
:1034B80080003E5149453E0000427F4000002141C6
:1034C800454B3100274545453900364949493600BD
:1034D800064949291E000060600000000808080825
:1034E80008002054545478003844444420007F088D
:1034F800040478007C0418047800384444443800F4
:103508007C0804040800485454542000043F4440F4
:1035180020003C4030403C1010FF1090E02F29E97B
:1035280009E9292FE0000042827F414425150D0555
:10353800FE0D1525454400008060F80740300FF85F
:1035480088888888080800010000FF00000000FF44
:10355800080808080800002030AC633000FC242567
:10356800262424243C000022672212523807FF092F
:103578007F093F89FF0000808080BEA2A2A2A2A28C
:10358800A2A2BE8080800000000006050404044456
:1035980084443C00000000404042CC00504EC848E3
:1035A8007FC848484000000040201F20504C43403E
:1035B800404F50505C40001010FF100082864A5265
:1035C800A2524A8680800042827F010010121212A5
:1035D800FF121212100000002018C744444444FC93
:1035E800444444440400000404040704040404FF9D
:1035F80004040404040400000000FE222222222203
:10360800222222FE0000008040300F020202020245
:103618000242827F000000000000FE8282828282D5
:103628008282FE00000000000000FF404040404051
:103638004040FF000000000000FE82929292FE923D
:10364800929282FE00000080601F00001E1212127B
:103658001E40807F000000004042445840407F40A8
:10366800405048C600000000404444444444444498
:10367800444444FF0000000808E8292E28E8080808
:10368800C80C0BE80808000000FF0949897F000002
:103698000F40807F0000001010D0FF901040425C67
:1036A800407F4050CE0000040300FF000140444426
:1036B80044444444FF0000008060F8071090101153
:1036C800161010D0100000010000FF4040415E407D
:1036D80040704E41404000101010FF109004040448
:1036E80004FC04040404000444827F010000004038
:1036F800807F000000000080808888888888FF8894
:103708008888888880800000007C404040407F4056
:10371800404040FC00000000020C80608040300FF8
:10372800C808082818000002027E018040201806F8
:103738000106182040800090523410FF1034528047
:10374800708F0808F80800829A566322528E00800B
:1037580040330C334080001060028C0000FE9292CF
:10376800929292FE00000004047E01407E42427E56
:10377800427E42427E40000000FC242424FC252690
:1037880024FC242424040040308F80844C552525B3
:1037980025554C808080000000F888888888FF883C
:1037A800888888F800000000001F080808087F883B
:1037B8008888889F80F000202020BEAAAAAAAAAAEA
:1037C800AAAABE20202000008080AFAAAAAAFFAA29
:1037D800AAAAAF80800000000202C2020202FE8292
:1037E800828282820200004040407F4040407F4009
:1037F80040404040404000C8B88FE888884048486A
:10380800E85F4848484000081808FF040400020B15
:103818001222D20A06000080828282FE828282827E
:1038280082FE8282828000008040300F000000000B
:1038380000FF000000000000001011161010F0102A
:10384800101413100000008181414121110D030D56
:1038580011214141818100404042CC00202222A216
:10386800622222222000000040201F20444E4544AE
:10387800444445464C4000001088C433004042424E
:1038880042C24242424000020100FF0000000040E4
:10389800807F0000000000002020A86C2A3928A89A
:1038A8002A6CA82020000002828190924A4945246F
:1038B8002210080102020090523410FF1034528086
:1038C800708F0808F80800829A566322528E00808A
:1038D80040330C3340800000FC2024A8FFA82400BB
:1038E800FC4444C4424000003F2221202F20A36012
:1038F8001F0000FF0000000000F888888888FF8803
:10390800888888F800000000001F080808087F88D9
:103918008888889F80F0001060028C0000FE9292D8
:10392800929292FE00000004047E01407E42427E94
:10393800427E42427E40000000FC242424FC2526CE
:1039480024FC242424040040308F80844C552525F1
:1039580025554C80808000000000FE828282828291
:103968008282FE00000000000000FF40404040400E
:103978004040FF000000000004FF242424FF04004E
:10398800FE222222FE000088482F090919AF48307C
:103998000F0242827F000000FC848484FC00101027
:1039A800101010FF101000003F1010103F00000111
:1039B8000640807F00000000F8010600F012121295
:1039C800F2020202FE000000FF0000001F111111A8
:1039D8001F0040807F000000E000FF10200888786A
:1039E8000F08E808088800010000FF00100C834455
:1039F80023180718628100201008F75454545454AF
:103A08005454F404040000809090494D572525250E
:103A1800554D458080800000007C40404040FF407C
:103A2800404040FC000000007C40404040407F4057
:103A380040404040FC00000000FE02020202020278
:103A48000202020202020080601F00000000000063
:103A580000000000000000404042CC0040A09E82D0
:103A680082829EA02020000000003F908840432CC6
:103A780010284641808000001715D55557557D55AB
:103A88005755D5151700004040407F555555555599
:103A980055557F4040400000000000000000FF082E
:103AA800080808080808000000FF41414141414159
:103AB800414141FF000000100C4424140405060491
:103AC80004142444140C00004040414141417F410A
:103AD800414141404000000000FE4040404000FF9E
:103AE8008040201008000000007F20201010003FB8
:103AF8004040404040780000FC848484FC00101062
:103B0800101010FF101000003F1010103F000001AF
:103B18000640807F0000008040209088868080805A
:103B2800838C1020408000008040201807004080CF
:103B3800403F00000000002424A4FE232200C038D7
:103B480000FF0008106000080601FF0106818040A0
:103B58004027100C030000000000000000000000D7
:103B6800000000000000000000000000000000004D
:103B7800000000000000007E4A52FE524A7E2020CB
:103B880020FF20222C2000E90969076505B540308F
:103B98000E010E30408000404042CC000000000082
:103BA800FF0000000000000000003F9048201807B8
:103BB800000718204080001060028C0044545454C0
:103BC8007F54545444400004047E010000FF15153E
:103BD8001555957F000000100C44241404050604B4
:103BE80004142444140C00004040414141417F41E9
:103BF800414141404000000000FC242422E302FC33
:103C0800444442C342400040300F02028243300F16
:103C1800000000FF00000004040484E43C2724247E
:103C28002424E40404040004020100FF090909092A
:103C380049897F0000000090523410FF10345280F0
:103C4800708F0808F80800829A566322528E008006
:103C580040330C334080001010FF109000FE929209
:103C680092F292929E800042827F0180601F00FC47
:103C780044474444FC0000000202C2020202FE82E1
:103C8800828282820200004040407F4040407F4064
:103C9800404040404040000000FC2424E42424220A
:103CA8002222A36200000040308F80404023140885
:103CB800142241408080004044C4444444401010D1
:103CC800FF101010F00000103C131014B840300E14
:103CD800014080403F0000101010FF109000FC24AD
:103CE800E4242223E200000444827F0180601F80D4
:103CF8004126182641800000002424242424FC2284
:103D080022222322000000020202020242827F02D3
:103D18000202020202020004040404F49495969438
:103D280094F4040404040000FE02027A4A4A4A4A4F
:103D38004A7A0282FE000000000000000000000035
:103D480000000000000000000080C0C0E0E0F0E0DB
:103D5800E0C0C0800000000000000000000000007B
:103D680000000000E0E00000000000E0E0000000CB
:103D780000000000808080C080000000800000E01B
:103D8800000000000000000000E0E000000000006B
:103D9800000000000000000000C00000000000005B
:103DA800000000000000000000000000000000000B
:103DB80000000000000000000000000000000000FB
:103DC8000000000000FEFEFFFF11113131313131DA
:103DD80031313131F3FFFEFC00000000000000002B
:103DE80000000003FFFF3333333333FFFF030000CA
:103DF800FFC3C3C1C1C1C1C0C000407C0F0C0CFFD0
:103E08000C0C0C6063636363637F7F63636363634A
:103E1800600000C060301806030303030303FB03BC
:103E28000303030303237B1F0700000000000000B7
:103E3800000000000000000000000000000000007A
:103E480000000000003F3F7F7FE3E2E2E2E2E2E2BF
:103E5800E2E2E2E2667F3F1F00000000000000008F
:103E6800000000303FBFF3333333F3BF3F3000F07F
:103E78003F00000000FFFF00000008180C0C0EFFB8
:103E88000602030C0C6CCC8C0C0C0C0C0CFF0C0CF0
:103E98000C000080C060381C070100000000FF0013
:103EA800000001030E1C70E080000000000000000C
:103EB80000000000000000000000000000000000FA
:103EC80000000000000000000000010103030303DC
:103ED80001010100000000000000000000000000D7
:103EE80000000006030100000000000101020301B8
:103EF8000000000000070700000000000000000F9D
:103F080000000000000000010C0C0C0C0E07000063
:103F18000000000001000000000C0C0C0C0E070053
:103F28000000000000000000000000000000000089
:103F3800000000000000002A2D2D20616E79206FFE
:103F480074686572206B657920746F207265646986
:103F58007370616C7920746865206D656E752E0DBF
:103F68000A00532D2D205365742044656661756CD5
:103F78007420506172616D65746572732E0D0A004C
:103F8800522D2D205265616420746865205061723D
:103F9800616D65746572732E0D0A00462D2D2053D0
:103FA800657420414C4C20446174613D3078303058
:103FB8000D0A004F2D2D205265616420416C6C2044
:103FC800446174612E0D0A00506C6561736520733D
:103FD800656C6563743A0D0A0057656C636F6D65AF
:103FE800210D0A0020202020003230002D3E00251F
:083FF800002E002F003A00002A
:020000040020DA
:08000000FFFFFFFFFFFFFFFF00
:020000040030CA
:0E000000FFC20F3E189585FF0FC00FE00F40A6
:00000001FF
